{
  "_format": "hh-sol-artifact-1",
  "contractName": "Lock",
  "sourceName": "contracts/Lock.sol",
  "abi": [
    {
      "inputs": [],
      "stateMutability": "nonpayable",
      "type": "constructor"
    },
    {
      "anonymous": false,
      "inputs": [
        {
          "indexed": true,
          "internalType": "address",
          "name": "from",
          "type": "address"
        },
        {
          "indexed": false,
          "internalType": "uint256",
          "name": "amount",
          "type": "uint256"
        },
        {
          "indexed": false,
          "internalType": "uint256",
          "name": "unlockTime",
          "type": "uint256"
        }
      ],
      "name": "Deposit",
      "type": "event"
    },
    {
      "anonymous": false,
      "inputs": [
        {
          "indexed": true,
          "internalType": "address",
          "name": "owner",
          "type": "address"
        },
        {
          "indexed": false,
          "internalType": "uint256",
          "name": "amount",
          "type": "uint256"
        },
        {
          "indexed": false,
          "internalType": "uint256",
          "name": "unlockTime",
          "type": "uint256"
        }
      ],
      "name": "LockCreated",
      "type": "event"
    },
    {
      "anonymous": false,
      "inputs": [
        {
          "indexed": false,
          "internalType": "uint256",
          "name": "amount",
          "type": "uint256"
        },
        {
          "indexed": false,
          "internalType": "uint256",
          "name": "when",
          "type": "uint256"
        }
      ],
      "name": "Withdrawal",
      "type": "event"
    },
    {
      "inputs": [],
      "name": "canWithdraw",
      "outputs": [
        {
          "internalType": "bool",
          "name": "",
          "type": "bool"
        }
      ],
      "stateMutability": "view",
      "type": "function"
    },
    {
      "inputs": [],
      "name": "getBalance",
      "outputs": [
        {
          "internalType": "uint256",
          "name": "",
          "type": "uint256"
        }
      ],
      "stateMutability": "view",
      "type": "function"
    },
    {
      "inputs": [],
      "name": "isLocked",
      "outputs": [
        {
          "internalType": "bool",
          "name": "",
          "type": "bool"
        }
      ],
      "stateMutability": "view",
      "type": "function"
    },
    {
      "inputs": [
        {
          "internalType": "uint256",
          "name": "_unlockTime",
          "type": "uint256"
        }
      ],
      "name": "lock",
      "outputs": [],
      "stateMutability": "payable",
      "type": "function"
    },
    {
      "inputs": [],
      "name": "owner",
      "outputs": [
        {
          "internalType": "address payable",
          "name": "",
          "type": "address"
        }
      ],
      "stateMutability": "view",
      "type": "function"
    },
    {
      "inputs": [],
      "name": "timeLeft",
      "outputs": [
        {
          "internalType": "uint256",
          "name": "",
          "type": "uint256"
        }
      ],
      "stateMutability": "view",
      "type": "function"
    },
    {
      "inputs": [],
      "name": "unlockTime",
      "outputs": [
        {
          "internalType": "uint256",
          "name": "",
          "type": "uint256"
        }
      ],
      "stateMutability": "view",
      "type": "function"
    },
    {
      "inputs": [],
      "name": "withdraw",
      "outputs": [],
      "stateMutability": "nonpayable",
      "type": "function"
    }
  ],
  "bytecode": "0x6080604052348015600f57600080fd5b5033600160006101000a81548173ffffffffffffffffffffffffffffffffffffffff021916908373ffffffffffffffffffffffffffffffffffffffff1602179055506000600160146101000a81548160ff021916908315150217905550610afa8061007b6000396000f3fe60806040526004361061007b5760003560e01c80638da5cb5b1161004e5780638da5cb5b14610118578063a4e2d63414610143578063b51459fe1461016e578063dd467064146101995761007b565b806312065fe0146100805780631300a6d1146100ab578063251c1aa3146100d65780633ccfd60b14610101575b600080fd5b34801561008c57600080fd5b506100956101b5565b6040516100a29190610648565b60405180910390f35b3480156100b757600080fd5b506100c06101bd565b6040516100cd9190610648565b60405180910390f35b3480156100e257600080fd5b506100eb6101ff565b6040516100f89190610648565b60405180910390f35b34801561010d57600080fd5b50610116610205565b005b34801561012457600080fd5b5061012d6103ee565b60405161013a91906106a4565b60405180910390f35b34801561014f57600080fd5b50610158610414565b60405161016591906106da565b60405180910390f35b34801561017a57600080fd5b50610183610427565b60405161019091906106da565b60405180910390f35b6101b360048036038101906101ae9190610726565b6104a5565b005b600047905090565b6000600160149054906101000a900460ff1615806101dd57506000544210155b156101eb57600090506101fc565b426000546101f99190610782565b90505b90565b60005481565b600160149054906101000a900460ff16610254576040517f08c379a000000000000000000000000000000000000000000000000000000000815260040161024b90610813565b60405180910390fd5b600054421015610299576040517f08c379a00000000000000000000000000000000000000000000000000000000081526004016102909061087f565b60405180910390fd5b600160009054906101000a900473ffffffffffffffffffffffffffffffffffffffff1673ffffffffffffffffffffffffffffffffffffffff163373ffffffffffffffffffffffffffffffffffffffff1614610329576040517f08c379a0000000000000000000000000000000000000000000000000000000008152600401610320906108eb565b60405180910390fd5b60004790506000600160146101000a81548160ff0219169083151502179055507fbf2ed60bd5b5965d685680c01195c9514e4382e28e3a5a2d2d5244bf59411b93814260405161037a92919061090b565b60405180910390a1600160009054906101000a900473ffffffffffffffffffffffffffffffffffffffff1673ffffffffffffffffffffffffffffffffffffffff166108fc829081150290604051600060405180830381858888f193505050501580156103ea573d6000803e3d6000fd5b5050565b600160009054906101000a900473ffffffffffffffffffffffffffffffffffffffff1681565b600160149054906101000a900460ff1681565b6000600160149054906101000a900460ff16801561044757506000544210155b80156104a05750600160009054906101000a900473ffffffffffffffffffffffffffffffffffffffff1673ffffffffffffffffffffffffffffffffffffffff163373ffffffffffffffffffffffffffffffffffffffff16145b905090565b600160149054906101000a900460ff16156104f5576040517f08c379a00000000000000000000000000000000000000000000000000000000081526004016104ec90610980565b60405180910390fd5b804210610537576040517f08c379a000000000000000000000000000000000000000000000000000000000815260040161052e90610a12565b60405180910390fd5b6000341161057a576040517f08c379a000000000000000000000000000000000000000000000000000000000815260040161057190610aa4565b60405180910390fd5b8060008190555033600160006101000a81548173ffffffffffffffffffffffffffffffffffffffff021916908373ffffffffffffffffffffffffffffffffffffffff16021790555060018060146101000a81548160ff0219169083151502179055503373ffffffffffffffffffffffffffffffffffffffff167f167357c41e38a45e1950f61b1f5accf902c878d83f1685f7f72fb666203ce047348360405161062492919061090b565b60405180910390a250565b6000819050919050565b6106428161062f565b82525050565b600060208201905061065d6000830184610639565b92915050565b600073ffffffffffffffffffffffffffffffffffffffff82169050919050565b600061068e82610663565b9050919050565b61069e81610683565b82525050565b60006020820190506106b96000830184610695565b92915050565b60008115159050919050565b6106d4816106bf565b82525050565b60006020820190506106ef60008301846106cb565b92915050565b600080fd5b6107038161062f565b811461070e57600080fd5b50565b600081359050610720816106fa565b92915050565b60006020828403121561073c5761073b6106f5565b5b600061074a84828501610711565b91505092915050565b7f4e487b7100000000000000000000000000000000000000000000000000000000600052601160045260246000fd5b600061078d8261062f565b91506107988361062f565b92508282039050818111156107b0576107af610753565b5b92915050565b600082825260208201905092915050565b7f4e656e68756d2066756e646f20626c6f71756561646f00000000000000000000600082015250565b60006107fd6016836107b6565b9150610808826107c7565b602082019050919050565b6000602082019050818103600083015261082c816107f0565b9050919050565b7f41696e6461206e616f20706f6465207265746972617200000000000000000000600082015250565b60006108696016836107b6565b915061087482610833565b602082019050919050565b600060208201905081810360008301526108988161085c565b9050919050565b7f566f6365206e616f206568206f2070726f70726965746172696f000000000000600082015250565b60006108d5601a836107b6565b91506108e08261089f565b602082019050919050565b60006020820190508181036000830152610904816108c8565b9050919050565b60006040820190506109206000830185610639565b61092d6020830184610639565b9392505050565b7f436f6e747261746f206a61206573746120626c6f71756561646f000000000000600082015250565b600061096a601a836107b6565b915061097582610934565b602082019050919050565b600060208201905081810360008301526109998161095d565b9050919050565b7f54656d706f20646520646573626c6f717565696f206465766520736572206e6f60008201527f2066757475726f00000000000000000000000000000000000000000000000000602082015250565b60006109fc6027836107b6565b9150610a07826109a0565b604082019050919050565b60006020820190508181036000830152610a2b816109ef565b9050919050565b7f4465766520656e7669617220616c67756d20455448207061726120626c6f717560008201527f6561720000000000000000000000000000000000000000000000000000000000602082015250565b6000610a8e6023836107b6565b9150610a9982610a32565b604082019050919050565b60006020820190508181036000830152610abd81610a81565b905091905056fea2646970667358221220f05e872d7cef8a8290442f930d7f6c7ab0fc517254f037a1324c10e3e333949164736f6c634300081c0033",
  "linkReferences": {},
  "deployedLinkReferences": {}
}